:020000040800F2
:100000007806002465030008611000081910000834
:1000100059100008710400083112000800000000A7
:100020000000000000000000000000007110000847
:100030007904000800000000691000087910000829
:100040007F0300087F0300087F0300087F03000888
:100050007F0300087F0300087F0300087F03000878
:100060007F0300087F0300087F0300087F03000868
:100070007F0300087F0300087F0300087F03000858
:100080007F0300087F0300087F0300087F03000848
:100090007F0300087F0300087F0300087F03000838
:1000A0007F0300087F0300087F0300087F03000828
:1000B0007F0300087F0300087F0300087F03000818
:1000C0007F0300087F0300087F0300087F03000808
:1000D0007F0300087F0300087F0300087F030008F8
:1000E0007F0300087F030008000000007F03000872
:1000F0007F0300087F0300087F0300087F030008D8
:100100007F0300087F0300087F0300087F030008C7
:100110007F0300087F0300087F0300087F030008B7
:100120007F0300087F0300087F0300087F030008A7
:100130007F0300087F0300087F0300087F03000897
:1001400000000000000000000000000000000000AF
:100150007F0300087F0300087F0300087F03000877
:100160007F0300087F0300087F0300087F03000867
:100170007F0300087F0300087F03000800000000E1
:100180007F0300087F0300087F0300087F03000847
:100190007F0300087F0300087F0300087F03000837
:1001A0007F0300087F0300087F0300087F03000827
:1001B0007F0300087F0300087F0300087F03000817
:1001C0007F0300087F0300087F0300087F03000807
:1001D0007F0300087F0300087F0300087F030008F7
:1001E0007F0300087F0300087F0300087F030008E7
:1001F0007F0300087F0300087F0300087F030008D7
:100200007F0300087F0300087F0300087F030008C6
:100210007F0300087F0300087F0300087F030008B6
:100220007F0300087F0300087F0300080000000030
:100230007F0300087F030008000000007F03000820
:100240007F0300087F0300087F0300087F03000886
:100250007F0300087F0300087F0300087F03000876
:100260007F0300087F0300087F0300087F03000866
:100270007F0300087F0300087F03000800000000E0
:100280007F0300087F0300087F03000800000000D0
:10029000000000007F03000800F002F800F052F8B0
:1002A00014A696E8000CB244B344DA4501D100F03C
:1002B00049F8BAE80F000FA696E83000A5EB040550
:1002C00004EB0607AAEB0704A7F101074FEA15158F
:1002D0004FEA3414A4F10104AC4201D300F032F827
:1002E00013F0010F18BFFB1A43F0010300F001F8EF
:1002F000DBE71847A40F0000C40F0000103A24BF2A
:1003000078C878C1FAD8520724BF30C830C144BF7A
:1003100004680C6070470000704700000023002450
:1003200000250026103A28BF78C1FBD8520728BF05
:1003300030C148BF0B6070471FB500F098FF1FBD6C
:1003400010B510BD00F058F81146FFF7F5FF00F0AA
:1003500073FF00F076F803B4FFF7F2FF03BC00F080
:100360007DF800000948804709480047FEE7FEE79E
:10037000FEE7FEE7FEE7FEE7FEE7FEE7FEE7FEE755
:1003800004480549054A064B704700006111000802
:1003900099020008780000247806002478020024DE
:1003A000780200244FF0000200B5134694469646AA
:1003B000203922BFA0E80C50A0E80C50B1F1200178
:1003C000BFF4F7AF090728BFA0E80C5048BF0CC026
:1003D0005DF804EB890028BF40F8042B08BF704784
:1003E00048BF20F8022B11F0804F18BF00F8012BF6
:1003F0007047704770477047754600F02BF8AE465F
:1004000005006946534620F00700854618B020B520
:10041000FFF7B6FFBDE820404FF000064FF00007A1
:100420004FF000084FF0000BAC46ACE8C009ACE858
:10043000C009ACE8C009ACE8C00921F007018D464D
:10044000704710B50446AFF300802046BDE8104069
:10045000FFF781BF004870471000002401491820B1
:10046000ABBEFEE72600020070470000000000005F
:10047000FEE70000000000007047000000000000E0
:1004800041F20000C5F600400068000C7047000013
:1004900040F27000C2F200400068704700000000A7
:1004A00040F2000040F27001C2F20040C2F200418E
:1004B00000780A68104408607047000000000000DF
:1004C00080B5032000F0E8F800F04AFA44F2184141
:1004D00041F28823C5F60201C0F600030A68C2F3A0
:1004E00003229A5C096801F00F0102F01F02595CB7
:1004F000D04040F20C02C2F2004201F01F0120FA8B
:1005000001F1116040F20801C2F2004108600F20C1
:1005100000F00AF800281CBF012080BD00F07CF824
:10052000002080BD00000000B0B540F20005C2F21E
:1005300000452978F1B1044640F20800C2F20040BB
:100540004FF47A72B2FBF1F10068B0FBF1F000F009
:100550004BFD0F2C01464FF001000AD8002918BFAF
:10056000B0BD4FF0FF300022214600F065F80020BA
:100570006C60B0BD0120B0BD10B54EF6A05E4378F2
:10058000CEF2000E90F800C04EF8083CDEF80030C5
:1005900023F00103CEF8003043684EF8043C037B9F
:1005A000C27A817A447B120642EA0372837B42EA72
:1005B000C141C27B41EA8441447A41EA4341007A25
:1005C00041EA024141EA042141EA400040EA0C00CC
:1005D000CEF8000010BD00004EF62450CEF2000010
:1005E000BFF35F8F016821F4803101600021016752
:1005F00070470000000000004EF6245140F001005A
:10060000CEF200010867086840F480300860BFF34C
:100610004F8FBFF36F8F704781B044F2F440C5F63F
:100620000200016841F002010160006800F0020070
:100630000090009801B0704770B54EF60C5C4FF01A
:10064000FF36CEF2000C00F1604505F56445DCF89C
:100650000030C3F3022E8EF00703042B28BF0423BF
:10066000BEF1030406FA03F321EA030100F00F03CD
:1006700038BF0024043B0028634406FA04F048BF56
:1006800003F10C05A14022EA000008430001287094
:1006900070BD0000000000004EF60C514FF6FF0345
:1006A000CEF200010A681A4060F30A2242F080602C
:1006B00040F0FD7008607047B0B544F60C05C5F613
:1006C000020529684907296806D401F00701081ABC
:1006D00018BF0120B0BD00BF21F00701084328600A
:1006E000FFF7D6FE044600BF55F8080C800407D477
:1006F000FFF7CEFE001BB0F57A7FF5D90120B0BD23
:100700000020B0BD000000002DE9F04381B00028BA
:1007100000F0208142F200090446C5F20029D9F810
:10072000000000F00F0088420DD2D9F8000020F040
:100730000F000843C9F80000D9F8000000F00F00CE
:10074000884240F00781206844F218464207C5F607
:1007500002060AD52269336803F070039A4204D96D
:10076000336823F070031A43326002070AD56269C6
:10077000736803F070039A4204D9736823F070031E
:100780001A437260C2060AD5A269736803F4E06373
:100790009A4204D9736823F4E0631A4372608206B4
:1007A0000AD5E269B36803F070039A4204D9B368CA
:1007B00023F070031A43B26010F002020AD0E3681B
:1007C000376807F00F07BB4204D9376827F00F07D7
:1007D0003B433360C3073FD0306820F47062D4E9F4
:1007E00001031A433260012856F8182C0AD0032856
:1007F00004D002280AD192030BD4ABE0920108D4B2
:10080000A8E000BFD20504D4A4E000BF520740F125
:10081000A180884656F8081C21F00701084346F8D5
:10082000080CFFF735FE054641F2883756F8080CEC
:10083000616800F03800B0EBC10F09D0FFF728FE67
:10084000401BB842F2D9032001B0BDE8F08300BFDD
:100850002068414600F0020252B1E268336803F0BA
:100860000F039A4204D2336823F00F031A43326015
:10087000D9F8002002F00F028A420CD9D9F80020E2
:1008800022F00F020A43C9F80020D9F8002002F034
:100890000F028A425ED141070AD52169326802F00F
:1008A0007002914204D2326822F07002114331602A
:1008B00001070AD56169726802F07002914204D2A0
:1008C000726822F0700211437160C1060AD5A169F5
:1008D000726802F4E062914204D2726822F4E0622B
:1008E0001143716080060AD5E069B16801F07001BA
:1008F000884204D2B16821F070010843B06000F072
:100900002FF8316841F28822C0F60002C1F30321BA
:10091000515C336803F00F0301F01F01D25C20FA31
:1009200001F102F01F0040F20C02C2F2004221FA73
:1009300000F0106040F2040040F20802C2F20040F1
:10094000C2F200420068116001B0BDE8F043FFF759
:10095000EBBD00BF012001B0BDE8F0830000000046
:1009600044F20041C5F602010869C0F3C200032841
:1009700016D002280ED098BB0868800649F2000005
:10098000C0F2D03058BF70470968C1F3C101C840F8
:10099000704700BF47F64000C0F27D10704700BFAF
:1009A0008A6A886AC0F3051CC86ABCF1000F4B6BE9
:1009B0001CD000F00100404200EAD3006FF35F302A
:1009C00000EE100A02F003000228B8EE400A0FD031
:1009D00090B90868800613D49FED251A1DE000BF6A
:1009E00040F60010C0F23D00704700BF0020704785
:1009F0009FED1E1A11E000BF9FED1B1A0DE000BF16
:100A0000086849F20002C0F2D032C0F3C10022FAF5
:100A100000F001EE100AB8EE411A086B9FED153A8E
:100A20006FF35F2002EE100A086BC0F34620B8EEA9
:100A3000422A013000EE032A00EE10CAB7EE003A57
:100A4000B8EE400A81EE000A32EE031A20EE010AE7
:100A500001EE100AB8EE411A80EE010ABCEEC00A9F
:100A600010EE100A704700BF0024744A20BCBE4B31
:100A70000024744C0000003970B3F0B581B0044616
:100A8000007844F20046C007C5F6020626D1207859
:100A9000800740F1C280306910F03801B06A3FD061
:100AA000182908BF5FEA80703AD0E06831680028F2
:100AB00062D021F0190108433060FFF7E9FC0546D8
:100AC0003068400748D4FFF7E3FC401B0228F7D901
:100AD000032001B0F0BD00BF01207047306900F075
:100AE0003801B06A102905D018290BD100F0030095
:100AF000022807D130688003C9D560680028C6D1B4
:100B00003CE100BF6168306800294FD0B1F5A02FEB
:100B100044D0B1F5803F5FD140F4803062E000BF47
:100B200030684007E06802D5002800F0278131686E
:100B300021F0190108433060FFF7AAFC054600BF09
:100B40003068400708D4FFF7A3FC401B02284FF091
:100B50000300F5D901B0F0BDFFF792FC41F20301AB
:100B600088424FD820697168402821F47C3151D1E6
:100B700041F4003050E000BF21F001003060FFF789
:100B800087FC05463068400747D5FFF781FC401BCE
:100B900002284FF00300F5D9DCE700BF40F48020C5
:100BA0003060306840F480301CE000BF20F48030BA
:100BB0003060306820F480203060FFF769FC054623
:100BC000306880037FF563AFFFF762FC401B642849
:100BD0004FF00300F4D9BDE720F480303060306876
:100BE00020F480203060FFF753FC05463068800316
:100BF0003FF54DAFFFF74CFC401B6428F6D90320AE
:100C000001B0F0BD7068216920F0FE4040EA01604B
:100C100002E000BF41EA003070602078C00654D581
:100C2000306900F03801B06A082905D0182919D1B7
:100C300000F00300012815D13068C00503D5E06934
:100C4000802840F09B80FFF71BFC41F203018842A3
:100C50001ED8206A7168202821F0F84132D141F075
:100C6000804031E0E0690028306819D040F0800011
:100C70003060FFF70DFC05463068C005E3D4FFF790
:100C800007FC401B02284FF00300F5D962E700BFC4
:100C9000F068216A20F07C5040EA0160F06014E0C6
:100CA00020F080003060FFF7F3FB05463068C00598
:100CB0000BD5FFF7EDFB401B02284FF00300F5D9E1
:100CC00048E700BF41EA80607060207800073FD4A9
:100CD0002078800656D42078400769D4656A9DB391
:100CE000306900F03800182840F0A880012DB16A62
:100CF000306B43D001F00302A36A9A423ED1C1F3A4
:100D00000511E26A914239D10146226B6FF35F21EE
:100D1000013A914232D1C0F34622616B01398A42D5
:100D20002CD1C0F30642A16B01398A4226D1C0F30F
:100D30000660E16B0139884220D1706BA16CC0F371
:100D4000CC00814240F03481002001B0F0BD00BFF2
:100D500060690028706F41D040F001007067FFF7B4
:100D600097FB0546706F8007B2D4FFF791FB401BDD
:100D70000228F7D9032001B0F0BD00BF012001B067
:100D8000F0BD00BFA0690028306845D040F4805015
:100D90003060FFF77DFB0546306880049BD4FFF789
:100DA00077FB401B0228F7D9032001B0F0BD00BF3C
:100DB000D6F8000440F48070C6F80004FFF768FB22
:100DC000054600BFD6F80004C00519D4FFF760FB44
:100DD000401B6428F6D9032001B0F0BD20F00100CB
:100DE0007067FFF755FB0546706F80077FF570AFA2
:100DF000FFF74EFB401B02284FF00300F4D9A9E691
:100E0000A168306F002943D0052939D0012957D175
:100E100040F001005AE000BF20F480503060FFF73E
:100E200037FB0546306880047FF555AFFFF730FB90
:100E3000401B02284FF00300F4D98BE6306820F005
:100E400080703060FFF724FB022D05460CD100BFF7
:100E5000306880014CD5FFF71BFB401B02284FF088
:100E60000300F5D976E600BF306880017FF56CAFEE
:100E7000FFF70EFB401B02284FF00300F4D969E690
:100E800040F004003067306F40F001001EE000BF0A
:100E900020F001003067306F20F004003067FFF76A
:100EA000F7FA054641F28837306F80077FF516AFB5
:100EB000FFF7EEFA401BB8424FF00300F4D949E6C1
:100EC00020F001003067306F20F004003067FFF73A
:100ED000DFFA054641F28837306F80073FF5FEAEF6
:100EE000FFF7D6FA401BB8424FF00300F4D931E6C1
:100EF00004F12807B06A40F2F33188438ECF0843EB
:100F0000591E40EA02104FF47E426FF35F21B06237
:100F100002EB47204FF4FE0280B2E36B0844A16B62
:100F200002EB01414FF0FE4201F4FE0102EB0362CD
:100F3000084402F0FE4108443063F06A4FF6F8714D
:100F400020F00100F062706BA26C884340EAC2009E
:100F50007063F06A216C20F00C000843F062F06AC4
:100F6000616C20F002000843F062F06A40F48030C7
:100F7000F062F06A40F40030F062F06A40F48020E1
:100F8000F062F06A40F00100F062306840F080707A
:100F90003060FFF77DFA0446306880013FF5D4AE3B
:100FA000FFF776FA001B02284FF00300F4D9D1E5D1
:100FB000F06A20F00100F062FFF76AFA0546FFF7D9
:100FC00067FAA842FBD0706B4FF6F871A26C8843A9
:100FD00040EAC2007063F06A40F00100F062002055
:100FE00001B0F0BD00000000411E0020B0EB116F09
:100FF00002D00120704700BF4EF21002F023CEF263
:10100000000251604EF62351CEF200010B70072111
:101010009060116070470000FEE7000000000000D3
:1010200082B044F2E040C5F60200016841F00401DC
:101030000160016801F0040101910199016841F02A
:1010400080010160006800F080000090009802B00C
:101050007047000000000000FEE7000000000000F4
:10106000FEE70000000000007047000000000000E4
:101070007047000000000000FFF712BA00000000F7
:10108000B0B59CB044F6180409A84C21C5F602047A
:10109000FFF788F902200025CDE90755CDE9055570
:1010A000CDE90355CDE90155FFF706FB40F22C4091
:1010B0000095C5F60000016821F00101016000689B
:1010C00000F001000090206840F44040206020685B
:1010D00000F44040009000982068800409D4206803
:1010E00080045CBF20685FEA804002D420688004EE
:1010F000F2D5012009904FF480300A90022014901C
:10110000CDE9120040240025CDE91540CDE91700B6
:101110000C20199009A8CDE91A55FFF7ADFC28B1AC
:10112000EFF3108072B600BFFEE700BF3F200190D2
:1011300003200221CDE9020508200694CDE904042C
:101140004FF48060CDE9070401A8FFF7DDFA28B16C
:10115000EFF3108072B600BFFEE700BF1CB0B0BD59
:101160004EF6885042F2000CCEF20000C5F2002C80
:10117000016841F470010160DCF8000000F00F002C
:10118000062806D8DCF80000072161F30300CCF83C
:10119000000044F200404EF67F52C5F60200CEF643
:1011A000F622016841F0010101600021016103683C
:1011B0001A400260DCF80020120706D5DCF8002097
:1011C000072363F30302CCF8002040F20022816180
:1011D000C161C0F20222016282620022C0F2FF12EB
:1011E000C26240F28022C0F2011202634163826354
:1011F000C16302644164026822F4802202600166D5
:1012000041F20000C5F600400068B1EB507F05D107
:1012100048F208100121C5F20010016044F20000FC
:1012200043F2D201C5F200200160704700000000C7
:10123000FEE700000000000084B001200090FFF7EE
:10124000CBF90020019048F21F70029040F201108B
:1012500003906846FFF790F90420FFF7CDF9FFF7F8
:101260002FF9FFF70DFFFFF7DBFE00BFFEE7F1EE02
:10127000100A4FF6FF71C0F2C03120EA010040F0C1
:101280004070E1EE100A7047000000000102030404
:101290000102030406070809B81200080000002430
:1012A00010000000FC020008C81200081000002412
:1012B000680600001C030008010000001000000088
:0812C0000090D0030090D00360
:040000050800029954
:00000001FF
