:020000040800F2
:100000003809002465030008F1450008513A00084A
:10001000E94500086105000841540008000000009F
:10002000000000000000000000000000514800082F
:10003000B106000800000000F94500085948000812
:100040007F0300087F0300087F0300087F03000888
:100050007F0300087F0300087F0300087F03000878
:100060007F0300087F0300087F030008690500087C
:10007000790500087F0300087F0300087F0300085C
:100080007F0300087F0300087F0300087F03000848
:100090007F0300087F0300087F0300087F03000838
:1000A0007F0300087F0300087F0300087F03000828
:1000B0007F0300087F0300087F030008693A0008F7
:1000C000593A00087F0300087F0300087F030008F7
:1000D0007F0300087F0300087F0300087F030008F8
:1000E0007F0300087F030008000000007F03000872
:1000F0007F0300087F0300087F0300087F030008D8
:100100007F0300087F0300087F0300087F030008C7
:100110007F0300087F0300087F0300087F030008B7
:100120007F0300087F0300087F0300087F030008A7
:100130007F0300087F0300087F0300087F03000897
:1001400000000000000000000000000000000000AF
:100150007F0300087F0300087F0300087F03000877
:100160007F0300087F0300087F0300087F03000867
:100170007F0300087F0300087F03000800000000E1
:100180007F0300087F0300087F0300087F03000847
:100190007F0300087F0300087F0300087F03000837
:1001A0007F0300087F0300087F0300087F03000827
:1001B0007F0300087F0300087F0300087F03000817
:1001C0007F0300087F0300087F0300087F03000807
:1001D0007F0300087F0300087F0300087F030008F7
:1001E0007F0300087F0300087F0300087F030008E7
:1001F0007F0300087F0300087F0300087F030008D7
:100200007F0300087F0300087F0300087F030008C6
:100210007F0300087F0300087F0300087F030008B6
:100220007F0300087F0300087F0300080000000030
:100230007F0300087F030008000000007F03000820
:100240007F0300087F0300087F0300087F03000886
:100250007F0300087F0300087F0300087F03000876
:100260007F0300087F0300087F0300087F03000866
:100270007F0300087F0300087F03000800000000E0
:100280007F0300087F0300087F03000800000000D0
:10029000000000007F03000800F002F800F052F8B0
:1002A00014A696E8000CB244B344DA4501D100F03C
:1002B00049F8BAE80F000FA696E83000A5EB040550
:1002C00004EB0607AAEB0704A7F101074FEA15158F
:1002D0004FEA3414A4F10104AC4201D300F032F827
:1002E00013F0010F18BFFB1A43F0010300F001F8EF
:1002F000DBE71847FC5100001C520000103A24BFF5
:1003000078C878C1FAD8520724BF30C830C144BF7A
:1003100004680C6070470000704700000023002450
:1003200000250026103A28BF78C1FBD8520728BF05
:1003300030C148BF0B6070471FB505F0AAF81FBD5C
:1003400010B510BD00F0D0F81146FFF7F5FF05F02D
:100350007BF800F0EEF803B4FFF7F2FF03BC00F007
:10036000F5F800000948804709480047FEE7FEE726
:10037000FEE7FEE7FEE7FEE7FEE7FEE7FEE7FEE755
:1003800004480549054A064B7047000041490008EA
:100390009902000838030024380900243805002495
:1003A0003805002453EA020C00F069802DE9F04B77
:1003B0004FF00006002B1FBFB3FA83F503FA05F4D4
:1003C00024FA05F65E4012BF1643B2FA82F502FA2D
:1003D00005F4C5F120051EBF22FA05FC44EA0C0411
:1003E000203556EA044C4FEA144418BF641C4FF001
:1003F00000084FF00009904271EB030C39D300293B
:1004000019BFB1FA81F701FA07F6B0FA80F700FADE
:1004100007F6C7F120071EBF20FA07FC46EA0C06C4
:100420002037B6FBF4FCA7EB0507103F07F01F0BC6
:10043000CBF120062CFA06F60CFA0BFB44BFB346B0
:100440000026202FA4BF5E464FF0000B5BEA060C8F
:1004500008BF4FF0010B19EB0B0948EB0608ABFB8B
:10046000027C06FB02CC0BFB03CCC01B71EB0C0126
:10047000C1E70B46024641464846BDE8F08B13B53E
:10048000084318BF4FF0FF300146AFF30080BDE8CE
:100490001C4070474FF0000200B513469446964644
:1004A000203922BFA0E80C50A0E80C50B1F1200187
:1004B000BFF4F7AF090728BFA0E80C5048BF0CC035
:1004C0005DF804EB890028BF40F8042B08BF704793
:1004D00048BF20F8022B11F0804F18BF00F8012B05
:1004E0007047704770477047754600F02BF8AE466E
:1004F00005006946534620F00700854618B020B530
:10050000FFF73EFFBDE820404FF000064FF0000728
:100510004FF000084FF0000BAC46ACE8C009ACE867
:10052000C009ACE8C009ACE8C00921F007018D465C
:10053000704710B50446AFF300802046BDE8104078
:10054000FFF709BF00487047100000240149182038
:10055000ABBEFEE72600020070470000000000006E
:10056000FEE700000000000040F27000C2F2004010
:1005700000F00ABA0000000040F2E800C2F20040B9
:1005800000F002BA0000000040F20F42D0F800C0B4
:10059000C4F20202944511DC6F22C4F202029445B7
:1005A00022DC3F22C4F20202944539DC1022C4F25C
:1005B000020294455AD0282254E000BF40F26F4214
:1005C000C4F2020294451BDC40F23F42C4F2020234
:1005D00094452DDC40F21042C4F20202944545D00D
:1005E00040F228423EE000BF9F22C4F2020294453E
:1005F00028DC7022C4F20202944537D0882231E010
:1006000040F29F42C4F20202944523DC40F2704261
:10061000C4F20202944529D040F2884222E000BF91
:100620004022C4F20202944520D058221AE000BFB2
:1006300040F24042C4F20202944517D040F25842C0
:1006400010E000BFA022C4F2020294450ED0B822EE
:1006500008E000BF40F2B842C4F20202944505D05F
:1006600040F2A042C4F20202944517D10CF0F80205
:100670004AF6AB23103ACAF6AA23A2FB03310AA317
:100680005F2AC1F302115B5C40F2FF312CEA0101E9
:10069000C36588BF04318165084670472CF0FF01AF
:1006A00081650846704700BF000610160006101648
:1006B0007047000000000000EFF3108072B600BF2A
:1006C000FEE7000000000000F0B190F835100229AC
:1006D00018D180B540F20F420168C4F20202914283
:1006E00014DC6F23C4F20203994225DC3F23C4F2D9
:1006F000020399423CDC1023C4F2020399425DD00C
:10070000282357E0802141650120704740F26F4364
:10071000C4F2020399421BDC40F23F43C4F20203DD
:1007200099422DDC40F21043C4F20203994245D0B5
:1007300040F228433EE000BF9F23C4F202039942E7
:1007400028DC7023C4F20203994237D0882331E0B9
:1007500040F29F43C4F20203994223DC40F270430B
:10076000C4F20203994229D040F2884322E000BF3C
:100770004023C4F20203994220D058231AE000BF5C
:1007800040F24043C4F20203994217D040F258436A
:1007900010E000BFA023C4F2020399420ED0B82398
:1007A00008E000BF40F2B843C4F20203994205D00A
:1007B00040F2A043C4F20203994275D191424FF036
:1007C000040280F8352011DC6F20C4F2020081425F
:1007D00022DC3F20C4F20200814239DC1020C4F246
:1007E0000200814259D0282054E000BF40F26F40FF
:1007F000C4F2020081421BDC40F23F40C4F202001E
:1008000081422DDC40F21040C4F20200814244D00B
:1008100040F228403EE000BF9F20C4F20200814227
:1008200028DC7020C4F20200814236D0882031E0FA
:1008300040F29F40C4F20200814223DC40F270404B
:10084000C4F20200814228D040F2884022E000BF7A
:100850004020C4F2020081421FD058201AE000BF9D
:1008600040F24040C4F20200814216D040F25840AB
:1008700010E000BFA020C4F2020081420DD0B820D9
:1008800008E000BF40F2B840C4F20200814204D048
:1008900040F2A040C4F202008142086820F001004A
:1008A0000860002080BD00BF0A6822F00E020A60C6
:1008B00045F25742C5F6020291420A6822F001024F
:1008C0000A600FDC45F22F42C5F60202914219DCA4
:1008D00045F20842C5F60202914229D045F21C4277
:1008E00022E000BF45F27F42C5F60202914213DCCE
:1008F00045F25842C5F60202914219D045F26C42C7
:1009000012E000BF45F23042C5F6020291420FD01C
:1009100045F2444208E000BF45F29442C5F60202A7
:10092000914205D045F28042C5F6020291421AD1A9
:10093000D0E9181CD0E916E30A6822F480720A6034
:1009400003F01F01012202FA01F1CEF80410816EBA
:10095000CCF80410C16E31B10A6822F480720A60CA
:10096000D0E91C124A60012180F83510016D002287
:10097000002980F8342094D08847002080BD0000F2
:1009800090F83500704700002DE9F04782B0002153
:10099000019140F2080148F2B513C2F20041C1F6DC
:1009A0004E33856D40F26F490A680168C4F202094E
:1009B0002E68A2FB032849452A6815DC9F22C4F251
:1009C000020291422CDC5722C4F20202914251DC15
:1009D0001022C4F2020291427BD02822C4F2020209
:1009E000914276D040226FE045F22F43C5F60203D4
:1009F000994229DC40F2B743C4F20203994245DC34
:100A000040F27042C4F20202914262D040F2884247
:100A1000C4F2020291425CD040F2A04254E000BF16
:100A200040F22742C4F2020291423FDCA022C4F20B
:100A3000020291424DD0B822C4F20202914248D043
:100A400040F2104240E000BF45F26B43C5F602039E
:100A5000994275DC45F23043C5F60203994200F035
:100A6000828045F24443C5F6020399427BD045F2A9
:100A7000584373E05822C4F20202914229D07022F6
:100A8000C4F20202914224D088221DE040F2B84311
:100A9000C4F2020399421CD045F20843C5F6020392
:100AA000994260D045F21C4358E000BF40F2284212
:100AB000C4F2020291420CD040F24042C4F202025F
:100AC000914206D040F25842C4F20202914240F0F4
:100AD0005383C26D082302F01F0240F20F4A934075
:100AE000C4F2020A334200F0DE8051454FF00404A4
:100AF00012DC6F27C4F20207B9426DDC3F27C4F253
:100B00000207B94200F39C801027C4F20207B942E1
:100B100000F0BD802827B5E0494569DC40F23F4739
:100B2000C4F20207B94200F3938040F21047C4F2C6
:100B30000207B94200F0AB8040F22847A2E000BFB4
:100B400045F26C43C5F6020399420CD045F280434E
:100B5000C5F60203994206D045F29443C5F6020356
:100B6000994240F009830B68C76D07F01F07042600
:100B7000BE40164218BF13F0040423D10226BE4023
:100B8000164218BF13F0020442D1FA40120740F196
:100B9000F38213F0080200F0EF820A6822F00E02DE
:100BA0000A60012101FA07F26A60416580F8351098
:100BB000C16C00294FF0000280F8342040F0D88248
:100BC000DAE200BF1A046E6034D49A0636D40A689A
:100BD00022F004020A6031E09F27C4F20207B94202
:100BE00040DC7027C4F20207B94250D0882749E0A0
:100BF00040F29F47C4F20207B9423BDC40F2704723
:100C0000C4F20207B94242D040F288473AE000BF3E
:100C10001A046E6000F1B4829A0600F1B5820A6887
:100C200022F00A020A60012180F83510002180F8C4
:100C30003410A9E2D90301D4816C98E2016C96E2E8
:100C40004027C4F20207B94221D058271AE000BF5A
:100C500040F24047C4F20207B94218D040F2584768
:100C600010E000BFA027C4F20207B9420FD0B82796
:100C700008E000BF40F2A047C4F20207B94206D024
:100C800040F2B847C4F20207B94218BF08240F68FF
:100C9000274208D00F6827F004070F60AB60436D50
:100CA00043F0010343650123934033426FD0514524
:100CB00010DC6F27C4F20207B9421DDC3F27C4F2E3
:100CC0000207B94234DC1027C4F20207B94256D0F9
:100CD00028274FE049451BDC40F23F47C4F202079A
:100CE000B9422DDC40F21047C4F20207B94246D0A7
:100CF00040F228473EE000BF9F27C4F20207B942F6
:100D000028DC7027C4F20207B94238D0882731E0C6
:100D100040F29F47C4F20207B94223DC40F2704719
:100D2000C4F20207B9422AD040F2884722E000BF4D
:100D30004027C4F20207B94221D058271AE000BF69
:100D400040F24047C4F20207B94218D040F2584777
:100D500010E000BFA027C4F20207B9420FD0B827A5
:100D600008E000BF40F2A047C4F20207B94206D033
:100D700040F2B847C4F20207B94240F007824F6917
:100D80003F0604D5AB60436D43F002034365042383
:100D9000934033426FD0514510DC6F27C4F20207F5
:100DA000B9421DDC3F27C4F20207B94234DC1027E8
:100DB000C4F20207B94256D028274FE049451BDC50
:100DC00040F23F47C4F20207B9422DDC40F210471F
:100DD000C4F20207B94246D040F228473EE000BFC5
:100DE0009F27C4F20207B94228DC7027C4F2020729
:100DF000B94238D0882731E040F29F47C4F2020759
:100E0000B94223DC40F27047C4F20207B9422AD04B
:100E100040F2884722E000BF4027C4F20207B942EF
:100E200021D058271AE000BF40F24047C4F2020721
:100E3000B94218D040F2584710E000BFA027C4F2D2
:100E40000207B9420FD0B82708E000BF40F2A04720
:100E5000C4F20207B94206D040F2B847C4F2020712
:100E6000B94240F09B810F68BF0704D5AB60436D6A
:100E700043F004034365102303FA02F2324200F008
:100E8000828051454FF0080310DC6F27C4F202073F
:100E9000B9421DDC3F27C4F20207B94234DC1027F7
:100EA000C4F20207B94256D028274FE049451BDC5F
:100EB00040F23F47C4F20207B9422DDC40F210472E
:100EC000C4F20207B94246D040F228473EE000BFD4
:100ED0009F27C4F20207B94228DC7027C4F2020738
:100EE000B94238D0882731E040F29F47C4F2020768
:100EF000B94223DC40F27047C4F20207B9422AD05B
:100F000040F2884722E000BF4027C4F20207B942FE
:100F100021D058271AE000BF40F24047C4F2020730
:100F2000B94218D040F2584710E000BFA027C4F2E1
:100F30000207B9420FD0B82708E000BF40F2A0472F
:100F4000C4F20207B94206D040F2B847C4F2020721
:100F5000B94218BF04230F681F4214D0AA600A6860
:100F600052030A6808D4D20508D40A6822F008029D
:100F70000A60016C21B906E0110351D4016C11B172
:100F8000044688472046C16D01F01F02202101FA66
:100F900002F3334200F0AF8001681027514511DCA5
:100FA0006F26C4F20206B1421EDC3F26C4F20206DE
:100FB000B14239DC1026C4F20206B1425BD02826C9
:100FC00054E000BF49451BDC40F23F46C4F2020634
:100FD000B14231DC40F21046C4F20206B1424AD0BE
:100FE00040F2284642E000BF9F26C4F20206B1420A
:100FF0002CDC7026C4F20206B1423CD0882635E0D3
:1010000040F29F46C4F20206B14227DC40F270462D
:10101000C4F20206B1422ED040F2884626E000BF5C
:10102000816C0029ACD1AEE74026C4F20206B14281
:1010300021D058261AE000BF40F24046C4F2020612
:10104000B14218D040F2584610E000BFA026C4F2CA
:101050000206B1420FD0B82608E000BF40F2A04619
:10106000C4F20206B14206D040F2B846C4F202060B
:10107000B14218BF02270E683E423CD0AB6090F8E8
:101080003530042B0B681DD123F016030B604B6920
:1010900023F080034B61036C0BB9836C1BB10B68AD
:1010A00023F008030B603F219140A960012180F8E3
:1010B0003510016D00294FF0000280F8342057D11F
:1010C0005AE000BF5A030A680CD4D2050ED40A684D
:1010D00022F010020A60012180F83510002180F80A
:1010E000341003E0110301D4416C00E0C16B11B175
:1010F000044688472046416D00293DD0416DC9070F
:1011000034D0042180F8351001684FEA98220B682A
:1011100023F001030B60019B0133019393421AD822
:101120000B68DB0717D0019B01330193934212D860
:101130000B68DB070FD0019B0133019393420AD860
:101140000B68DB0707D0019B01330193934202D860
:101150000B68DB07DFD10968C9074FF0030108BF3F
:10116000012180F83510002180F83410C16C19B1CC
:1011700002B0BDE8F047084702B0BDE8F08700BF05
:10118000D90301D4416CF2E7C16BF0E70B6804238B
:10119000934033427FF4FFAD6DE600BF0B686AE613
:1011A0002DE9F041044600F007FCFCB140F26F4825
:1011B00005462068C4F2020840451BDC9F21C4F2AA
:1011C0000201884232DC5721C4F20201884259DC14
:1011D0001021C4F20201884200F083802821C4F269
:1011E0000201884200F07D80402175E00120BDE8C9
:1011F000F08100BF45F22F41C5F60201884229DC8B
:1012000040F2B741C4F20201884247DC40F270412B
:10121000C4F20201884264D040F28841C4F2020163
:1012200088425ED040F2A04156E000BF40F2274124
:10123000C4F20201884241DCA021C4F202018842CA
:101240004FD0B821C4F2020188424AD040F2104186
:1012500042E000BF45F26B41C5F60201884200F34F
:10126000B38045F23041C5F60201884200F0BF80EC
:1012700045F24441C5F60201884200F0B88045F2CB
:101280005841AFE05821C4F20201884229D07021B0
:10129000C4F20201884224D088211DE040F2B84106
:1012A000C4F2020188421CD045F20841C5F6020191
:1012B000884200F09C8045F21C4193E040F22841B6
:1012C000C4F2020188420CD040F24041C4F2020153
:1012D000884206D040F25841C4F20201884240F0F0
:1012E0001B81022184F83510002184F83410016834
:1012F00021F00101016000BF20680168C9070DD01D
:1013000000F05AFB401B0628F6D32020606503201E
:1013100084F835000120BDE8F08100BF48F23F02AB
:1013200004F108060168CFF61062114065694CCEE1
:101330001143A2691943E3693143266A0D43616A87
:101340002B43042943EA060343EA020303D1D4E909
:101350000B652E43334341F20006C5F6004636685E
:10136000B6F1005F0FD36568A5F129061F2E00F2C4
:1013700035820127B7403F26CCF2C036374200F015
:101380002D8243F4801303600429436923F007038B
:1013900041EA030140F0DC80D4E90A53002B41EA22
:1013A000050100F0D580B2F5005F00F0B780002A9B
:1013B00040F0C080022D00F0C080012D00F0B4800C
:1013C000002D00F0BA80C3E045F26C41C5F6020181
:1013D00088420CD045F28041C5F60201884206D011
:1013E00045F29441C5F60201884240F0958004F12F
:1013F000080E022184F83510002184F834100168A9
:10140000A3699EE80450A2F18005E769B5FA85F565
:1014100066696D09402A4FEA853543EA07026FF392
:10142000101142EA060208BF102541EADC0142EA37
:101430000E02236A294341EAD20141EA131140F81E
:101440000819C0B2CD2148433C2101EA9020E06553
:101450002046FFF799F8E16D012201F01F0102FA21
:1014600001F141602068404500F381809F21C4F272
:101470000201884214DC5721C4F20201884227DCB1
:101480001021C4F20201884200F0C7802821C4F272
:101490000201884200F0C1804021C4F20201B9E09B
:1014A00040F22741C4F20201884221DCA021C4F2AB
:1014B0000201884200F0B180B821C4F202018842E2
:1014C00000F0AB8040F21041C4F20201A2E000BF84
:1014D0005821C4F20201884200F09F807021C4F2BA
:1014E0000201884200F099808821C4F2020191E053
:1014F00040F22841C4F20201884200F08E8040F29E
:101500004041C4F20201884200F0878040F2584115
:10151000C4F202017EE000BF4020F7E6032D17D899
:10152000DFE805F00E0B0E02A3F1C072B2FA82F2F0
:10153000520904E0032D03D30AD1C3F300623AB188
:1015400040206065012084F83500BDE8F08100BFCF
:1015500041612046FFF718F8E16D3F2201F01F01BD
:1015600002FA01F18160206840457FF77FAF45F2C4
:101570002F41C5F60201884216DC40F2B741C4F2A1
:101580000201884226DC40F27041C4F20201884226
:1015900043D040F28841C4F2020188423DD040F27B
:1015A000A041C4F2020135E045F26B41C5F60201EB
:1015B00088421FDC45F23041C5F6020188422CD03A
:1015C00045F24441C5F60201884226D045F2584111
:1015D0001EE000BF40F2B841C4F2020188421CD0B4
:1015E00045F20841C5F60201884216D045F21C4179
:1015F0000EE000BF45F26C41C5F6020188420CD0F6
:1016000045F29441C5F60201884206D045F2804178
:10161000C5F60201884240F0D98045F2574C45F6A4
:10162000FC0EC5F6020CC5F6020E60450EDC45F256
:101630002F41C5F60201884218DC45F20841C5F683
:101640000201884228D045F21C4121E045F27F4149
:10165000C5F60201884213DC45F25841C5F6020185
:10166000884219D045F26C4112E000BF45F230418A
:10167000C5F6020188420FD045F2444108E000BFA0
:1016800045F29441C5F60201884205D045F28041F9
:10169000C5F60201884247D100F0FC014CF6CD426C
:1016A0000839CCF6CC42A1FB0212AEF1FC05AEF13A
:1016B0007C061309A26803F01F01802A4FF0010283
:1016C00005EB8305256602FA01F26666A26605D17E
:1016D00000206060286072601EE000BF6368D9B2BD
:1016E0005F1E072F2960726016D84E1E082E19D271
:1016F00060450EF1440237DC45F22F41C5F6020188
:10170000884241DC45F20841C5F60201884251D0C9
:1017100045F21C414AE000BF00206067C4E91B009D
:1017200054E000BFE06E4CE000F0F8014AF6AB2256
:101730001039CAF6AA22A1FB021240F20F43C4F2EA
:10174000020308251109984203F1AA060B4688BF37
:1017500005EB121340F60005B042C4F2020505F194
:10176000800628BF0B46A5E745F27F41C5F602017A
:10177000884213DC45F25841C5F60201884219D06F
:1017800045F26C4112E000BF45F23041C5F602015E
:1017900088420FD045F2444108E000BF45F2804145
:1017A000C5F60201884205D045F29441C5F6020112
:1017B00088421BD10EEB83000121E066B140226715
:1017C000616700210160D4E91C014160002060656F
:1017D000012184F83510BDE8F08100BFA5F14F0765
:1017E000042F38BF43F48013CDE500BF40F600005E
:1017F000C4F2020000F1FC0E00F5A072DAE700006E
:101800002DE9F04F83B00F68002F00F0C98000F180
:10181000264642F2004506F1FF76C5F602050A2289
:10182000A8424FEAB62540F2040C08BF092200F195
:1018300020030093092DC5F6000C38BF4FEAB622ED
:10184000002400264FF0000801920AE008F1010888
:101850000F6837FA08F206F1020604F1040400F0FA
:101860009F80012202FA08FE17EA0E09EED0D1F895
:1018700004B003220BF00307B2407D1E6FEA020A98
:10188000012D11D88268CD6802EA0A02B5402A43C8
:101890008260CBF30015426822EA0E0205FA08F5D1
:1018A0002A43426004E000BF032F01D103271FE059
:1018B000C2688D6802EA0A02B540022F42EA0502B8
:1018C000C26015D16FF0030204F01C0502EA580B48
:1018D000009A0F2352F80BE0AB400F692EEA030386
:1018E000AF403B4342F80B30D1F804B00BF0030794
:1018F000026807FA06F302EA0A021BF4403F42EAD2
:1019000003020260A2D044F2F44340F2084EC5F64E
:101910000203C5F6000E0F251A6842F002021A6093
:101920001A6802F00202029228F00302029B04F0FD
:101930000C0352F80E709D40AF43019D05FA03F36E
:101940003B4342F80E304FF0B04EDEF800204B68BB
:1019500042EA0907DD0258BF22EA09079D02CEF8D4
:101960000070DCF8002042EA090758BF22EA0907A4
:101970009D03CCF80070DCF8802042EA090758BFCC
:1019800022EA0907DB03CCF88070DCF87C2042EA0D
:10199000090758BF22EA0907CCF87C7056E700BF58
:1019A00003B0BDE8F08F000041F20000C5F6004032
:1019B0000068000C7047000040F23030C2F2004076
:1019C000006870470000000090F84120202A03D1F1
:1019D00090F84020012A01D102207047242280F88B
:1019E00041200268136823F001031360136823F495
:1019F00080531360136819431160116841F00101AD
:101A00001160202180F84110002180F84010002052
:101A1000704700000000000090F84120202A03D108
:101A200090F84020012A01D102207047242280F83A
:101A300041200268136823F001031360136823F444
:101A4000706343EA01211160116841F001011160E6
:101A5000202180F84110002180F8401000207047BC
:101A60007047000000000000704700000000000008
:101A7000D0F800C0DCF81820DCF80030D10503F005
:101A8000800308D53BB1416C41F0010141644FF442
:101A90008071CCF81C10510508D53BB1416C41F068
:101AA000080141644FF48061CCF81C10910508D501
:101AB0003BB1416C41F0020141644FF40071CCF83C
:101AC0001C10416C11F00B0F08BF704702F048B8B2
:101AD0000268436B002B9169126808BF7047184772
:101AE000704700000000000010B310B590F84110DE
:101AF00031B9002180F84010044600F051F820462A
:101B0000242180F8411090E81210C3680A68012B64
:101B100022F001020A6024F070620A618A6822F4ED
:101B200000428A6006D14CF400428A600CE000BF9B
:101B300001207047022B4CF404428A6004D14A68A9
:101B400042F4006203E000BF4A6822F400624A6087
:101B500000F1100C4A6842F0007242F400424A6000
:101B6000CA6822F40042CA609CE81C101A4342EA88
:101B70000422CA60026A42EA0C020A600A6842F061
:101B800001020A6000214164202280F841200163A3
:101B900080F84210002010BD7047000000000000D7
:101BA000B0B5B8B0044602A8C0210025CDE936552D
:101BB000CDE934553395FEF76DFC45F600012068FC
:101BC000C4F20001884247D045F20041C4F200014E
:101BD000884271D10820029002A80024039400F0EA
:101BE00003FB08B1FEF768FD44F2E04533A9C5F6F2
:101BF0000205286840F002002860286800F0020012
:101C000001900198C02033901220CDE934040420C3
:101C1000379040F200403694C5F60200FFF7F0FD21
:101C2000A868002140F40010A860A868002200F411
:101C30000010019001981F2000F02AF91F2000F0E9
:101C400013F920200021002200F022F9202000F0CA
:101C50000BF938B0B0BD00BF0820029002A8039570
:101C600000F0C2FA08B1FEF727FD44F2E04433A9C0
:101C7000C5F60204206840F002002060206800F0F1
:101C80000200019001984FF440603390122034908C
:101C90000020CDE935000420379040F20040C5F621
:101CA0000200FFF7ADFDA06840F48000A060A068CE
:101CB00000F480000190019838B0B0BD0000000031
:101CC00070470000000000007047000000000000A6
:101CD00040F2000040F23031C2F20040C2F2004156
:101CE00000780A6810440860704700000000000097
:101CF00080B5032000F0FCF801F0B2F944F218417D
:101D000045F2B843C5F60201C0F600030A68C2F303
:101D100003229A5C096801F00F0102F01F02595C6E
:101D2000D04040F20C02C2F2004201F01F0120FA42
:101D300001F1116040F20801C2F2004108600F2079
:101D400000F00AF800281CBF012080BD00F07CF8DC
:101D5000002080BD00000000B0B540F20005C2F2D6
:101D600000452978F1B1044640F20800C2F2004073
:101D70004FF47A72B2FBF1F10068B0FBF1F001F0C0
:101D8000B3FC0F2C01464FF001000AD8002918BF00
:101D9000B0BD4FF0FF300022214600F079F800205E
:101DA0006C60B0BD0120B0BD10B54EF6A05E4378AA
:101DB000CEF2000E90F800C04EF8083CDEF800307D
:101DC00023F00103CEF8003043684EF8043C037B57
:101DD000C27A817A447B120642EA0372837B42EA2A
:101DE000C141C27B41EA8441447A41EA4341007ADD
:101DF00041EA024141EA042141EA400040EA0C0084
:101E0000CEF8000010BD00004EF62450CEF20000C7
:101E1000BFF35F8F016821F4803101600021016709
:101E200070470000000000004EF6245140F0010011
:101E3000CEF200010867086840F480300860BFF304
:101E40004F8FBFF36F8F704781B044F2F440C5F6F7
:101E50000200016841F002010160006800F0020028
:101E60000090009801B07047002848BF704700F00C
:101E70001F01012202FA01F14EF20012C0F34A10D2
:101E8000CEF2000242F8201070470000000000006F
:101E900070B54EF60C5C4FF0FF36CEF2000C00F140
:101EA000604505F56445DCF80030C3F3022E8EF082
:101EB0000703042B28BF0423BEF1030406FA03F32F
:101EC00021EA030100F00F0338BF0024043B00287F
:101ED000634406FA04F048BF03F10C05A14022EA6E
:101EE000000008430001287070BD000000000000E1
:101EF0004EF60C514FF6FF03CEF200010A681A406D
:101F000060F30A2242F0806040F0FD700860704784
:101F1000B0B544F60C05C5F60205296849072968DD
:101F200006D401F00701081A18BF0120B0BD00BF98
:101F300021F0070108432860FFF73EFD044600BF7B
:101F400055F8080C800407D4FFF736FD001BB0F5E8
:101F50007A7FF5D90120B0BD0020B0BD000000009F
:101F600080B500F0F5FF44F2204145F2B842C5F6D5
:101F70000201C0F600020968C1F30211515C01F0D0
:101F80001F01C84080BD000080B544F2384EC5F640
:101F9000020E5EF8103C5EF8101C5EF80C2CC1F3CB
:101FA000053CDEF80410BCF1000F15D0C908D206BC
:101FB00001EAE2716FF35F3100EE101A03F00301E2
:101FC0000229B8EE400A0DD081B95EF8381C8906A6
:101FD00010D49FED361A1BE000218160C0E900118A
:101FE00080BD00BF9FED301A12E000BF9FED2D1A9B
:101FF0000EE000BF5EF8381C49F20002C0F2D03299
:10200000C1F3C10122FA01F101EE101AB8EE411A32
:10201000DEF800109FED263A6FF35F2102EE101AF2
:10202000DEF80010C1F34621B8EE422A00EE032A82
:1020300000EE10CAB7EE003AB8EE400A81EE000A90
:1020400032EE031A02EE101AB8EE422A20EE010A0E
:1020500032EE031A80EE011ABCEEC11A80ED001AAE
:10206000DEF80010C1F3064101EE101AB8EE411A75
:1020700031EE031A80EE011ABCEEC11A80ED011A8E
:10208000DEF80010C1F3066101EE101AB8EE411A35
:1020900031EE031A80EE010ABCEEC00A10EE101AEF
:1020A000816080BD0024744A20BCBE4B0024744C67
:1020B000000000390000000080B544F2404EC5F633
:1020C000020E5EF8183C5EF8181C5EF8142CC1F382
:1020D000055CDEF80410BCF1000F15D0C908D2056C
:1020E00001EAE2716FF35F3100EE101A03F00301B1
:1020F0000229B8EE400A0DD081B95EF8401C89066D
:1021000010D49FED361A1BE000218160C0E9001158
:1021100080BD00BF9FED301A12E000BF9FED2D1A69
:102120000EE000BF5EF8401C49F20002C0F2D0325F
:10213000C1F3C10122FA01F101EE101AB8EE411A01
:10214000DEF800109FED263A6FF35F2102EE101AC1
:10215000DEF80010C1F34621B8EE422A00EE032A51
:1021600000EE10CAB7EE003AB8EE400A81EE000A5F
:1021700032EE031A02EE101AB8EE422A20EE010ADD
:1021800032EE031A80EE011ABCEEC11A80ED001A7D
:10219000DEF80010C1F3064101EE101AB8EE411A44
:1021A00031EE031A80EE011ABCEEC11A80ED011A5D
:1021B000DEF80010C1F3066101EE101AB8EE411A04
:1021C00031EE031A80EE010ABCEEC00A10EE101ABE
:1021D000816080BD0024744A20BCBE4B0024744C36
:1021E00000000039000000002DE9F0470446C078E7
:1021F00044F22C480007C5F6020828D5A06E4FEA25
:10220000305103292AD8DFE801F0030B131B00BF6C
:10221000D8F8001041F40031C8F8001010E000BFF9
:1022200004F10800022102F0EBF9064680B906E04D
:1022300004F12800022102F077FA064640B9A06EA8
:10224000D8F8241021F440110843C8F824000026CF
:102250006078C00706D135462FE000BF01266078C0
:10226000C007F8D0A06D042858D83546DFE800F044
:1022700004140E0B0B0000BFD8F80000354640F4E4
:102280000030C8F800002F46C5B90DE004F1280061
:10229000002102F049FA04E004F10800002102F0F4
:1022A000AFF905462F464DB9D8F82400A16D20F0AE
:1022B000070000250843C8F82400374660788007E7
:1022C00031D5E06D4FEAB01004285FD8DFE800F0A8
:1022D00004140E0A0A0000BFD8F8000040F40030D1
:1022E000C8F800002E46FDB90EE000BF04F128003A
:1022F000002102F019FA04E004F10800002102F0C4
:102300007FF905462E467DB9D8F82400E16D20F40A
:10231000E07000250843C8F8240004E001250127E7
:1023200060788007CDD43E466078400733D5D4F836
:10233000A8004FEA7050042860D8DFE800F00313CB
:102340000D090900D8F8000040F40030C8F800007A
:10235000A9460DBB0EE000BF04F12800002102F0E9
:10236000E3F904E004F10800002102F049F9054610
:10237000A9468DB9D8F82C00D4F8A81020F4600034
:1023800000250843C8F82C0005E000BF0125012600
:1023900060784007CBD4B1466078000734D5D4F8D4
:1023A000AC004FEA306004285ED8DFE800F0031389
:1023B0000D090900D8F8000040F40030C8F800000A
:1023C0002F4615BB0EE000BF04F12800002102F0EB
:1023D000ABF904E004F10800002102F011F9054610
:1023E0002F4695B9D8F82C00D4F8AC1020F0E06056
:1023F00000250843C8F82C0006E000BF01254FF077
:10240000010960780007CAD44F46E078800730D5CC
:10241000E06C4FEA3010032820D8DFE800F0090311
:10242000150900BFD8F8000040F40030C8F80000DB
:102430002E46ADB9D8F82000E16C20F03000002520
:102440000843C8F8200014E004F10800022102F05B
:10245000D7F805462E461DB9ECE700BF0125012639
:102460006078C00609D434E001250127E0788007B0
:10247000CED43E466078C0062BD5206E4FEA303071
:10248000042839D8DFE800F004140E0A0A0000BF5F
:10249000D8F8000040F40030C8F800002F46CDB94D
:1024A0000EE000BF04F12800002102F03DF904E035
:1024B00004F10800002102F0A3F805462F464DB9AB
:1024C000D8F82400216E20F4E04000250843C8F825
:1024D000240037466078800635D5606E4FEA30407C
:1024E000052815D8DFE800F0041A0E04040400BF24
:1024F0002E46DDB91EE000BF012501276078800669
:10250000EBD420E004F12800012102F00DF90AE0EB
:10251000012501266078400619D449E004F108003D
:10252000012102F06DF805462E461DB16078400687
:102530000DD43DE0D8F82400616E20F4E0200025A1
:102540000843C8F824003E466078400630D5D4F8E9
:10255000B0004FEA307005280ED8DFE800F0031312
:10256000070303032F46ADB918E000BF04F12800AC
:10257000012102F0D9F80AE0012501276078000660
:102580001AD43CE004F10800012102F039F80546B4
:102590002F461DB1607800060ED430E0D8F82C002C
:1025A000D4F8B01020F0E04000250843C8F82C0013
:1025B00037466078000622D5206F58B1B0F1005F31
:1025C0000CD0B0F1805F37D1D8F8000040F4003073
:1025D000C8F800002E469DB908E000BF04F10800CD
:1025E000012102F00DF805462E464DB9D8F8240019
:1025F000216F20F0405000250843C8F824003E46D3
:10260000E078C0071DD0A06C032855D8DFE800F0A3
:1026100008024A08D8F8000040F40030C8F800006A
:10262000A9467DB9D8F82000A16C20F00300002550
:102630000843C8F8200004E001250126E078C0071F
:10264000E1D1B146A078400602D44F4618E000BF61
:10265000D8F8D40340F48070C8F8D403FFF7ACF97D
:10266000064600BFD8F8D403C00507D4FFF7A4F985
:10267000801B6428F6D90325032701E02F46FDB10E
:102680002078C00700F06F80E06F4FEAF000052867
:102690004ED8DFE800F0035347030303002D2E4616
:1026A00054D157E004F10800022101F0A9FF0546CA
:1026B000002DA946C6D1B5E701254FF00109C1E7B4
:1026C000D8F84410D4F8B400414011F4407F11D040
:1026D000D8F84410D8F8442042F48032C8F8442096
:1026E000D8F8442021F4407122F48032C8F8442004
:1026F000C8F84410B0F5807F40F0E082FFF75CF945
:10270000064641F2883A0325032700BFD8F8440063
:10271000800700F1D182FFF74FF9801B5045F5D9B2
:10272000AEE700BF04F12800012101F0FDFF0AE03F
:10273000012501262078800719D446E004F108001D
:10274000012101F05DFF05462E461DB1207880076E
:102750000DD43AE0D8F82800E16F20F038000025C9
:102760000843C8F828003E46207880072DD5A06F82
:1027700005280FD8DFE800F004140804040400BFA3
:102780002F46ADB918E000BF04F12800012101F087
:10279000CBFF0AE0012501272078400719D447E044
:1027A00004F10800012101F02BFF05462F461DB161
:1027B000207840070DD43BE0D8F82800A16F20F026
:1027C000070000250843C8F828003746207840074E
:1027D0002ED5D4F8940005280ED8DFE800F00313B6
:1027E000070303032E46ADB918E000BF04F128002B
:1027F000012101F099FF0AE00125012620788006D9
:102800001AD44BE004F10800012101F0F9FE05465D
:102810002E461DB1207880060ED43FE0D8F82C005B
:10282000D4F8941020F0070000250843C8F82C00C5
:102830003E462078800631D5D4F890004FEA3070BB
:1028400005280FD8DFE800F004140804040400BFD2
:102850002F46ADB918E000BF04F12800022101F0B5
:1028600063FF0AE001250127207840061AD44BE0D7
:1028700004F10800002101F0C3FE05462F461DB1FA
:10288000207840060ED43FE0D8F82800D4F8901005
:1028900020F0E04000250843C8F82800374620789B
:1028A000400631D5D4F89C004FEAB02005280FD857
:1028B000DFE800F004140804040400BF2E46ADB99C
:1028C00018E000BF04F12800022101F02DFF0AE00A
:1028D00001250126207800061AD44EE004F10800F4
:1028E000002101F08DFE05462E461DB12078000620
:1028F0000ED442E0D8F82C00D4F89C1020F4E0501C
:1029000000250843C8F82C003E462078000634D540
:10291000D4F8A0004FEA7030052815D8DFE800F0A1
:10292000041A0E04040400BF2F46E5B12068010715
:1029300027D4C1063ED4000355D477E004F1280023
:10294000022101F0F1FE0AE00125012720680107BC
:10295000EFD516E004F10800002101F051FE054614
:10296000002D2F46E2D1D8F82C00D4F8A01020F486
:10297000604000250843C8F82C003746206801074E
:10298000D7D5D4F88400B0F5805F09D104F12800D0
:10299000022101F0C9FE002818BF0127D4F88400E5
:1029A000D8F8281021F440510843C8F828002068BE
:1029B000C106C0D5D4F89800B0F5807F09D104F1E4
:1029C0002800022101F0B0FE002818BF0127D4F82A
:1029D0009800D8F82C1021F440710843C8F82C0056
:1029E0002068000322D5D4F8A400B0F5003F11D030
:1029F000B0F5803F08D0002844D104F10800002140
:102A000001F0FEFD05E000BF04F12800022101F005
:102A10008BFE05462E4655B9D8F82C00D4F8A410E4
:102A200020F4403000250843C8F82C003E46A0782A
:102A300040072CD5D4F88800B0F5401F0BD0B0F576
:102A4000001F0BD0B0F5801F2AD1D8F8000040F449
:102A50000030C8F800002F46D5B907E004F128007F
:102A6000012101F061FE05462F468DB9D8F82800F6
:102A7000D4F8881020F4401000250843C8F8280036
:102A800005E000BF01250126A0784007D2D43746D3
:102A9000A078C00709D13E462168880015D532E0EC
:102AA00001250127A078C007F5D0206DB0F5803F43
:102AB00010D018BBD8F8000040F40030C8F800006F
:102AC0002E4685B1216888001DD460688A0326D40B
:102AD00069E000BF04F10800022101F091FD054604
:102AE000002D2E46EED1D8F82000216D20F4803044
:102AF00000250843C8F82000CDE700BF01250126C6
:102B000021688800E1D504F12800022101F00CFEC3
:102B1000002818BF0126D4E900108A0343D5D4F851
:102B200080206FF0010303EB3223022B0BD34FEA1B
:102B3000322343B1012B40F0B980D8F8003043F480
:102B40000033C8F800303DB3CA022FD4CA0037D4CE
:102B50008A0240D44A0048D4CA0F55D109025DD434
:102B6000C10766D181076FD4410779D4010700F10D
:102B70008380C10600F18C80800607D504F128000F
:102B8000022101F0D1FD002818BF0125002D18BF3A
:102B900001252846BDE8F087D8F8283023F4407393
:102BA0001A43C8F828203546CA02CFD5D8F82420C1
:102BB000636F22F000421A43C8F82420CA00C7D528
:102BC00058F81C2CD4F8B83022F480421A4348F844
:102BD0001C2C8A02BED5D8F82420E36E22F0807225
:102BE0001A43C8F824204A00B6D558F81C2C22F401
:102BF000004248F81C2CD4F8BC2058F81C3C1A435E
:102C000048F81C2CCA0FA9D0D8F82020636D22F0F8
:102C100040521A43C8F820200902A1D5D8F828103C
:102C2000D4F88C2021F440011143C8F82810C107C2
:102C300098D004F10800002101F0E2FC002818BF40
:102C40000546606881078FD504F10800012101F075
:102C5000D7FC002818BF0546606841077FF586AF9E
:102C600004F10800022101F0CBFC002818BF054642
:102C7000606801077FF57DAF04F12800002101F0B5
:102C800053FD002818BF05466068C1067FF574AF84
:102C900004F12800012101F047FD002818BF054676
:102CA000606880063FF56AAF70E700BF0125CA0281
:102CB0007FF54CAF7AE700BFD4F8B4004FF6CF737E
:102CC00058F81C2CC0F2FF0300F4407122F47C522F
:102CD00003EA10136FF31F30B1F5407F08BF1A43AA
:102CE000002548F81C2CD8F844100843C8F84400C4
:102CF000FFF7ABBC000000002DE9F04381B00028D5
:102D000000F0208142F200090446C5F20029D9F8FA
:102D1000000000F00F0088420DD2D9F8000020F02A
:102D20000F000843C9F80000D9F8000000F00F00B8
:102D3000884240F00781206844F218464207C5F6F1
:102D400002060AD52269336803F070039A4204D957
:102D5000336823F070031A43326002070AD56269B0
:102D6000736803F070039A4204D9736823F0700308
:102D70001A437260C2060AD5A269736803F4E0635D
:102D80009A4204D9736823F4E0631A43726082069E
:102D90000AD5E269B36803F070039A4204D9B368B4
:102DA00023F070031A43B26010F002020AD0E36805
:102DB000376807F00F07BB4204D9376827F00F07C1
:102DC0003B433360C3073FD0306820F47062D4E9DE
:102DD00001031A433260012856F8182C0AD0032840
:102DE00004D002280AD192030BD4ABE0920108D49C
:102DF000A8E000BFD20504D4A4E000BF520740F110
:102E0000A180884656F8081C21F00701084346F8BF
:102E1000080CFEF7D1FD054641F2883756F8080C3C
:102E2000616800F03800B0EBC10F09D0FEF7C4FDB7
:102E3000401BB842F2D9032001B0BDE8F08300BFC7
:102E40002068414600F0020252B1E268336803F0A4
:102E50000F039A4204D2336823F00F031A433260FF
:102E6000D9F8002002F00F028A420CD9D9F80020CC
:102E700022F00F020A43C9F80020D9F8002002F01E
:102E80000F028A425ED141070AD52169326802F0F9
:102E90007002914204D2326822F070021143316014
:102EA00001070AD56169726802F07002914204D28A
:102EB000726822F0700211437160C1060AD5A169DF
:102EC000726802F4E062914204D2726822F4E06215
:102ED0001143716080060AD5E069B16801F07001A4
:102EE000884204D2B16821F070010843B06000F05C
:102EF000B7F8316845F2B842C0F60002C1F30321C9
:102F0000515C336803F00F0301F01F01D25C20FA1B
:102F100001F102F01F0040F20C02C2F2004221FA5D
:102F200000F0106040F2040040F20802C2F20040DB
:102F3000C2F200420068116001B0BDE8F043FEF744
:102F40000BBF00BF012001B0BDE8F083000000000E
:102F500080B500F085F844F2184145F2B843C5F653
:102F60000201C0F600030A68C2F303229A5C0968F2
:102F700001F00F0102F01F02595C20FA02F201F089
:102F80001F0040F20C01C2F2004122FA00F008607A
:102F900040F20801C2F200410A6080BD000000005A
:102FA00080B500F05DF844F2184C45F2B843C5F620
:102FB000020CC0F60003DCF80020C2F303229A5C86
:102FC000DCF8001001F00F0102F01F02595CD04044
:102FD00040F20C02C2F2004201F01F0120FA01F19E
:102FE000116040F20802C2F200421060DCF80400F6
:102FF000C0F30210185C00F01F0021FA00F080BD41
:1030000080B500F02DF844F2184C45F2B843C5F6EF
:10301000020CC0F60003DCF80020C2F303229A5C25
:10302000DCF8001001F00F0102F01F02595CD040E3
:1030300040F20C02C2F2004201F01F0120FA01F13D
:10304000116040F20802C2F200421060DCF8040095
:10305000C0F30220185C00F01F0021FA00F080BDD0
:1030600044F20041C5F602010869C0F3C20003281A
:1030700016D002280ED098BB0868800649F20000DE
:10308000C0F2D03058BF70470968C1F3C101C840D1
:10309000704700BF47F64000C0F27D10704700BF88
:1030A0008A6A886AC0F3051CC86ABCF1000F4B6BC2
:1030B0001CD000F00100404200EAD3006FF35F3003
:1030C00000EE100A02F003000228B8EE400A0FD00A
:1030D00090B90868800613D49FED251A1DE000BF43
:1030E00040F60010C0F23D00704700BF002070475E
:1030F0009FED1E1A11E000BF9FED1B1A0DE000BFEF
:10310000086849F20002C0F2D032C0F3C10022FACE
:1031100000F001EE100AB8EE411A086B9FED153A67
:103120006FF35F2002EE100A086BC0F34620B8EE82
:10313000422A013000EE032A00EE10CAB7EE003A30
:10314000B8EE400A81EE000A32EE031A20EE010AC0
:1031500001EE100AB8EE411A80EE010ABCEEC00A78
:1031600010EE100A704700BF0024744A20BCBE4B0A
:103170000024744C0000003970B3F0B581B00446EF
:10318000007844F20046C007C5F6020626D1207832
:10319000800740F1C280306910F03801B06A3FD03A
:1031A000182908BF5FEA80703AD0E06831680028CB
:1031B00062D021F0190108433060FEF7FDFB05469F
:1031C0003068400748D4FEF7F7FB401B0228F7D9C8
:1031D000032001B0F0BD00BF01207047306900F04E
:1031E0003801B06A102905D018290BD100F003006E
:1031F000022807D130688003C9D560680028C6D18D
:103200003CE100BF6168306800294FD0B1F5A02FC4
:1032100044D0B1F5803F5FD140F4803062E000BF20
:1032200030684007E06802D5002800F02781316847
:1032300021F0190108433060FEF7BEFB054600BFD0
:103240003068400708D4FEF7B7FB401B02284FF058
:103250000300F5D901B0F0BDFEF7A6FB41F2030172
:1032600088424FD820697168402821F47C3151D1BF
:1032700041F4003050E000BF21F001003060FEF763
:103280009BFB05463068400747D5FEF795FB401B82
:1032900002284FF00300F5D9DCE700BF40F480209E
:1032A0003060306840F480301CE000BF20F4803093
:1032B0003060306820F480203060FEF77DFB0546EA
:1032C000306880037FF563AFFEF776FB401B642810
:1032D0004FF00300F4D9BDE720F48030306030684F
:1032E00020F480203060FEF767FB054630688003DD
:1032F0003FF54DAFFEF760FB401B6428F6D9032075
:1033000001B0F0BD7068216920F0FE4040EA016024
:1033100002E000BF41EA003070602078C00654D55A
:10332000306900F03801B06A082905D0182919D190
:1033300000F00300012815D13068C00503D5E0690D
:10334000802840F09B80FEF72FFB41F2030188426A
:103350001ED8206A7168202821F0F84132D141F04E
:10336000804031E0E0690028306819D040F08000EA
:103370003060FEF721FB05463068C005E3D4FEF758
:103380001BFB401B02284FF00300F5D962E700BF8A
:10339000F068216A20F07C5040EA0160F06014E09F
:1033A00020F080003060FEF707FB05463068C0055E
:1033B0000BD5FEF701FB401B02284FF00300F5D9A7
:1033C00048E700BF41EA80607060207800073FD482
:1033D0002078800656D42078400769D4656A9DB36A
:1033E000306900F03800182840F0A880012DB16A3B
:1033F000306B43D001F00302A36A9A423ED1C1F37D
:103400000511E26A914239D10146226B6FF35F21C7
:10341000013A914232D1C0F34622616B01398A42AE
:103420002CD1C0F30642A16B01398A4226D1C0F3E8
:103430000660E16B0139884220D1706BA16CC0F34A
:10344000CC00814240F03481002001B0F0BD00BFCB
:1034500060690028706F41D040F001007067FEF78E
:10346000ABFA0546706F8007B2D4FEF7A5FA401B91
:103470000228F7D9032001B0F0BD00BF012001B040
:10348000F0BD00BFA0690028306845D040F48050EE
:103490003060FEF791FA0546306880049BD4FEF751
:1034A0008BFA401B0228F7D9032001B0F0BD00BF02
:1034B000D6F8000440F48070C6F80004FEF77CFAE9
:1034C000054600BFD6F80004C00519D4FEF774FA0B
:1034D000401B6428F6D9032001B0F0BD20F00100A4
:1034E0007067FEF769FA0546706F80077FF570AF69
:1034F000FEF762FA401B02284FF00300F4D9A9E658
:10350000A168306F002943D0052939D0012957D14E
:1035100040F001005AE000BF20F480503060FEF718
:103520004BFA0546306880047FF555AFFEF744FA44
:10353000401B02284FF00300F4D98BE6306820F0DE
:1035400080703060FEF738FA022D05460CD100BFBE
:10355000306880014CD5FEF72FFA401B02284FF04F
:103560000300F5D976E600BF306880017FF56CAFC7
:10357000FEF722FA401B02284FF00300F4D969E657
:1035800040F004003067306F40F001001EE000BFE3
:1035900020F001003067306F20F004003067FEF744
:1035A0000BFA054641F28837306F80077FF516AF7A
:1035B000FEF702FA401BB8424FF00300F4D949E687
:1035C00020F001003067306F20F004003067FEF714
:1035D000F3F9054641F28837306F80073FF5FEAEBC
:1035E000FEF7EAF9401BB8424FF00300F4D931E688
:1035F00004F12807B06A40F2F33188438ECF0843C4
:10360000591E40EA02104FF47E426FF35F21B06210
:1036100002EB47204FF4FE0280B2E36B0844A16B3B
:1036200002EB01414FF0FE4201F4FE0102EB0362A6
:10363000084402F0FE4108443063F06A4FF6F87126
:1036400020F00100F062706BA26C884340EAC20077
:103650007063F06A216C20F00C000843F062F06A9D
:10366000616C20F002000843F062F06A40F48030A0
:10367000F062F06A40F40030F062F06A40F48020BA
:10368000F062F06A40F00100F062306840F0807053
:103690003060FEF791F90446306880013FF5D4AE02
:1036A000FEF78AF9001B02284FF00300F4D9D1E598
:1036B000F06A20F00100F062FEF77EF90546FEF7A1
:1036C0007BF9A842FBD0706B4FF6F871A26C88436F
:1036D00040EAC2007063F06A40F00100F06200202E
:1036E00001B0F0BD00000000411E0020B0EB116FE2
:1036F00002D00120704700BF4EF21002F023CEF23C
:10370000000251604EF62351CEF200010B700721EA
:10371000906011607047000090F88410012901D179
:10372000022070472421C0F8881001680A680B68DD
:1037300022F0005223F001030B60002343660A606D
:103740002021C0F8881080F88430002070470000E5
:1037500090F88420012A01D10220704770B52422FC
:10376000C0F888200268D0F864E0BEF1000FD2F8FB
:1037700000C0136823F001031360936823F06063B3
:1037800041EA0301916019D0916845F2E04E9368D7
:10379000C0F6000E5B0F45F2E845C1F34266C0F685
:1037A00000051EF80340E95C2301B3FBF1F11EF8AC
:1037B0000630AE5D1B01B3FBF6F301E001210123EE
:1037C000A0F86A102021A0F86830C2F800C0C0F844
:1037D0008810002180F88410002070BD00000000D7
:1037E00090F88420012A01D10220704770B524226C
:1037F000C0F888200268D0F864E0BEF1000FD2F86B
:1038000000C0136823F001031360936823F0604342
:1038100041EA0301916019D0916845F2E04E936846
:10382000C0F6000E5B0F45F2E845C1F34266C0F6F4
:1038300000051EF80340E95C2301B3FBF1F11EF81B
:103840000630AE5D1B01B3FBF6F301E0012101235D
:10385000A0F86A102021A0F86830C2F800C0C0F8B3
:103860008810002180F88410002070BD0000000046
:1038700010B5D8B10446D0F8880028B9002084F8E3
:103880008400204600F028F82420C4F8880020682E
:10389000A16A0268002922F00101016002D02046DD
:1038A00001F0B6F8204601F0DBF908B1012010BDA7
:1038B0002068416821F490414160816821F02A012B
:1038C0008160016841F0010101602046BDE81040BF
:1038D00001F00EB9000000002DE9F041B8B0044637
:1038E00002A8C0210025CDE93655CDE934553395E0
:1038F000FCF7D0FD44F200412068C4F20001884288
:1039000074D041F20001C4F20101884240F09B8072
:103910000120029002A800260396FEF765FC08B17C
:10392000FCF7CAFE44F2E04040F21008C5F602007F
:10393000C4F20208016941F010010161016901F05E
:10394000100101910199016841F0020101600068D4
:10395000002100F002000190C5F6020101984FF429
:103960004040339002203696CDE93406042037904B
:1039700001F5806033A9FDF743FF40F2700529206F
:10398000C2F200454FF48067C5E901062846C5F834
:103990000080EE60C5E90476C5E90666C5E90866FB
:1039A000FDF7FEFB08B1FCF787FEC4F8805008F174
:1039B0001800AC6340F2E805C2F2004528602A20F6
:1039C00068604020A8600020C5E90307C5E905003C
:1039D000C5E9070068622846FDF7E2FB08B1FCF77D
:1039E0006BFEE567AC6338B0BDE8F08102A80395D3
:1039F00002240294FEF7F8FB08B1FCF75DFE44F2E6
:103A0000E040C5F60200816841F4003181608168C0
:103A100001F4003101910199016841F00101016057
:103A2000006833A900F00100019001980C20CDE955
:103A300033040020CDE93500072037900020C5F67B
:103A40000200FDF7DDFE38B0BDE8F08100000000A7
:103A5000FEE700000000000040F26010C2F20040EB
:103A6000FEF706B80000000040F26010C2F200400D
:103A7000FEF72EB800000000806B816B00291CBF90
:103A800000220A65C16B00291CBF00220A6590F85C
:103A90004110602908D1202180F8411000210163E4
:103AA00080F84010FDF7DCBF0021016380F8401072
:103AB000FEF716B80000000010B590F8411003683A
:103AC00001F0280128291FD19969D3F818E0C1F322
:103AD00000419A68D3F80CC0C468022C4FEA1E4E0D
:103AE00018D18EEAD21414F0060F21D00CF0FE0289
:103AF0001C6824F0B8041C60002380F84030BDE846
:103B00001040FDF7B1BF00BF0821D961002180F846
:103B1000401010BD1A6822F0B8021A600EF0FE02C2
:103B2000002380F84030BDE81040FDF79DBF00BF86
:103B3000846C01348464846C022C18BF10BD6FF354
:103B40009F224FF0000CC0F848C00824DC6180F8C8
:103B500040C0BDE81040FDF787BF00000000000036
:103B600010B50446002390F84100002284F842205A
:103B7000CFF6FF73E3626285626C11436164A0F16A
:103B8000280194F8410002291ED894F8411000F051
:103B90002800F222282801F028004FF0B40308BFC3
:103BA0004222282808BF0423216843EA02000A6849
:103BB00022EA00000860282084F8410044F24910FD
:103BC000C0F6000031E000BF94F8410021680868A9
:103BD00020F0FE0008608869800707D48869C00764
:103BE00009D094F8410060280DD11DE000208862C2
:103BF0008869C007F5D1886940F00100886194F8B0
:103C00004100602810D0202084F841008869800697
:103C10000AD58869C00605D51020C861606C40F0DF
:103C2000040060642020C86100206063226BA06BE8
:103C300000B3212A18BF112A1CD10A68520403D5E7
:103C40000A6822F480420A60FCF79AFE012822D01A
:103C5000A06B43F67921C0F600010165002184F8CC
:103C60004010FCF731FD002844D0A06B016DBDE889
:103C700010400847E06B70B1222A18BF122A0AD1FF
:103C80000A68120403D50A6822F400420A60FCF7AD
:103C900077FE01281AD194F8410060280CD1202029
:103CA00084F841000020206384F840002046BDE8ED
:103CB0001040FDF7D5BE00BF0020206384F840000F
:103CC0002046BDE81040FDF70BBF00BFE06B43F698
:103CD0007921C0F600010165002184F84010FCF74D
:103CE000F3FC002808BF10BDE06B016DBDE810407B
:103CF000084700BF10BD000070B5036804460E46BB
:103D000020211A68D0F82CC090F84150D96105F0F4
:103D1000F700212806D0222808D122206FF0FC01CC
:103D20000BE000BF6FF0FA0107E000BF282D0AD1B9
:103D300094F8410000206FF0FE0194F841501D6896
:103D400029401960206358684EF6000140F4004095
:103D500058605868CFF6006108405860986980073D
:103D60000ED49869C00710D0500414D410041BD589
:103D7000186820F400401860E06B90B914E000BFB0
:103D8000002098629869C007EED1986940F0010060
:103D900098615004EAD5186820F480401860A06B40
:103DA00010B100684068608570070ED5586A616A76
:103DB00026F004060870208D616A0131616220B12D
:103DC00001382085608D01386085608D18B1606C88
:103DD00040F004006064F00640F1B48012F010007E
:103DE00000F0B080608D88B120681021C1616FF053
:103DF00080701CEA000F606C40F00400606440F0CA
:103E0000A180616C2046FFF7ABFE9BE094F8410077
:103E1000282840F20000CFF6FF7008BFBCF1007FF9
:103E200024D094F841202168292A4FF01002CA6159
:103E300040F08880844500F085808869800701D53E
:103E4000002088628869C00703D1886940F00100BA
:103E50008861086842044FF0000284F8422033D49D
:103E6000000436D56FF4004030E000BFE06200206F
:103E70002063202184F84110710784F842006063B8
:103E800011D52168626A496A1170218D626A013216
:103E9000626241B101392185618D01396185616CB1
:103EA00041F00401616494F8411094F841102168D4
:103EB0000A6822F0FE020A601022CA6184F84000FB
:103EC0002046FDF769FE3DE06FF480400A6810402F
:103ED000086094F84100292818D1282084F841006E
:103EE0002120206394F841006FF0F20200F02800D6
:103EF000282808BF6FF042020868104008600020C0
:103F000084F840002046FDF7DFFE1BE094F84100F6
:103F10002A2817D1282084F841002220206394F811
:103F200041006FF0F40200F02800282808BF6FF06D
:103F30004402086810400860002084F840002046D1
:103F4000FDF7BEFE002084F842006063606CD8B3C9
:103F5000616C2046FFF704FE94F84100282818BF42
:103F600070BD00202021CFF6FF70E06200202063AA
:103F700084F84110710784F84200606311D521680C
:103F8000626A496A1170218D626A0132626241B1CE
:103F900001392185618D01396185616C41F0040130
:103FA000616494F8411094F8411021680A6822F085
:103FB000FE020A601022CA6184F840002046BDE873
:103FC0007040FDF7E9BD00BFE06A10F5803F0FD1FA
:103FD00094F84100202184F8411000212228204635
:103FE000216384F8401013D1BDE87040FDF768BE2E
:103FF00020680025CFF6FF7501684A044FF00002E3
:1040000084F8422008D409040BD56FF4004105E080
:10401000BDE87040FDF758BE6FF480410268114062
:10402000016094F84110292918D1282184F8411001
:104030002121216394F841106FF0F20201F0280170
:10404000282908BF6FF0420201681140016000207A
:1040500084F840002046FDF737FE1BE094F841103D
:104060002A2917D1282184F841102221216394F8AC
:1040700041106FF0F40201F02801282908BF6FF009
:104080004402016811400160002084F8400020468D
:10409000FDF716FEE562202084F841000020206331
:1040A00084F840002046BDE87040FDF775BD000073
:1040B00001680A6853044FF0000380F8423005D4C9
:1040C000120408D56FF4004202E000BF6FF4804292
:1040D0000B681A400A6090F84120292A16D128223C
:1040E00080F841202122026390F841206FF0F20312
:1040F00002F02802282A08BF6FF042030A681A401B
:104100000A60002180F84010FDF7DEBD90F84120E4
:104110002A2A18BF7047282280F8412022220263F1
:1041200090F841206FF0F40302F02802282A08BF1B
:104130006FF044030A681A400A60002180F84010BA
:10414000FDF7BEBD0000000010B5C36A90F8404006
:10415000012C01D1022010BD0A4094064FF0010449
:1041600080F840401CD4D40624D4510734D411071D
:104170007AD4910718D5418D002900F0E980416A71
:10418000026811F8013B93624162418D013941851A
:10419000018D01390185002180F84010002010BDFB
:1041A0000446FFF7A9FD2046002180F840100020BA
:1041B00010BD00BF428D9AB301681022CA616FF032
:1041C00080710B42416C41F004014164ECD1416CBF
:1041D0000446FFF7C5FCE6E7418D61B10168426A1C
:1041E000496A1170028D416A01314162511E018597
:1041F000418D01394185418D0029D5D10021CFF66E
:10420000FF718B42D0D001680A6853044FF000035D
:1042100080F842305CD412045FD56FF4004259E05C
:1042200090F84120282A40F20002CFF6FF7208BF22
:10423000B3F1007F1CD090F841400168292C4FF069
:104240001004CC61B0D19342AED08A69920701D5F7
:1042500000228A628A69D20740F07F808A6942F030
:1042600001028A6179E000BF0446FFF725FC9AE766
:10427000C2620022490702634FF0200380F84130F8
:1042800080F84220426311D50168436A496A197077
:10429000018D436A0133436241B101390185418D8A
:1042A00001394185416C41F00401416490F84110AD
:1042B000044690F8411001680B6823F0FE030B6080
:1042C0001023CB6180F84020FDF766FC6BE700BF50
:1042D0006FF480420B681A400A6090F84120292A46
:1042E00018D1282280F841202122026390F8412031
:1042F0006FF0F203044602F02802282A08BF6FF08C
:1043000042030A681A400A60002180F84010FDF755
:10431000DBFC48E790F841202A2A7FF445AF2822A9
:1043200080F841202222026390F841206FF0F403CC
:10433000044602F02802282A08BF6FF044030A68E6
:104340001A400A60002180F84010FDF7B9FC2AE706
:104350006FF080710B427FF427AF0446FFF7A8FE91
:1043600021E700000000000080B582B044F2D84090
:104370000022C5F60200016841F0010101600068F9
:10438000002100F00100019001980B20FDF780FD55
:104390000B20FDF769FD0C2000210022FDF778FDC0
:1043A0000C2002B0BDE88040FDF75EBD00000000BB
:1043B00081B044F2E040C5F60200016841F004011A
:1043C0000160016801F0040100910099016841F069
:1043D00080010160016801F080010091009901688D
:1043E00041F001010160016801F0010100910099B3
:1043F000016841F002010160006800F002000090D5
:10440000009801B07047000080B540F2601045F29E
:104410000041C2F200404EF6FF42C4F20001C1F278
:10442000C002C0E90012002181600122C0E903211D
:10443000C0E90511C0E90711FDF756FB08B1FCF70B
:104440003BF940F260100021C2F20040FDF7BCFAD7
:1044500008B1FCF731F940F260100021C2F20040CF
:10446000FDF7DAFA002808BF80BDBDE88040FCF700
:1044700023B900000000000080B540F2B41045F6FA
:104480000001C2F200404EF6FF42C4F20001C1F248
:10449000C002C0E90012002181600122C0E90321AD
:1044A000C0E90511C0E90711FDF71EFB08B1FCF7D3
:1044B00003F940F2B4100021C2F20040FDF784FA83
:1044C00008B1FCF7F9F840F2B4100021C2F2004044
:1044D000FDF7A2FA002808BF80BDBDE88040FCF7C8
:1044E000EBB800000000000080B540F2082041F267
:1044F0000001C2F20040C4F201010C2201604FF43D
:10450000E13141600021C0E902110161C0E90521EA
:10451000C0E90711C0E90911FFF7AAF908B1FCF7D2
:10452000CBF840F208200021C2F20040FFF758F912
:1045300008B1FCF7C1F840F208200021C2F20040A7
:10454000FFF706F908B1FCF7B7F840F20820C2F20D
:104550000040FFF7E1F8002808BF80BDBDE88040BB
:10456000FCF7AAB80000000080B540F29C2044F29D
:104570000041C2F20040C4F200010C2201604FF47D
:10458000E13141600021C0E902110161C0E905216A
:10459000C0E90711C0E90911FFF76AF908B1FCF792
:1045A0008BF840F29C200021C2F20040FFF718F97E
:1045B00008B1FCF781F840F29C200021C2F20040D3
:1045C000FFF7C6F808B1FCF777F840F29C20C2F27A
:1045D0000040FFF7A1F8002808BF80BDBDE880407B
:1045E000FCF76AB800000000FEE7000000000000D1
:1045F000FEE700000000000070470000000000001F
:10460000F0B581B044F22C47C5F6020757F8042CE8
:1046100002F00302032A03D1012001B0F0BD00BF64
:10462000054657F82C0C0C4620F0806047F82C0CFF
:10463000FDF7C2F9064600BF57F82C0C000105D55E
:10464000FDF7BAF9801B0228F6D964E057F8040C8C
:10465000EE6895E80E0020F47C30012C40EA013031
:10466000A2F101016FF35F214FF47E4202EB43227E
:1046700047F8040C92B24FF0FE4302EB01004FF4F6
:10468000FE012A6901EB064101F4FE0103EB02621F
:10469000084402F0FE410844F8603868696920F077
:1046A000C00040EA010038603868A96920F02000A5
:1046B00040EA0100386038684FF6F87120F01000C9
:1046C00038603869EA6920EA01004FF4001140EAD5
:1046D000C2003861386808BF4FF4801140F0100004
:1046E000002C386008BF4FF4002138680843386058
:1046F00057F82C0C40F0806047F82C0CFDF75CF963
:10470000044600BF57F82C0C000107D4FDF754F9FC
:10471000001B0328F6D3032001B0F0BD002001B038
:10472000F0BD000000000000F0B581B044F22C475D
:10473000C5F6020757F8042C02F00302032A03D13E
:10474000012001B0F0BD00BF054657F82C0C0C4607
:1047500020F0805047F82C0CFDF72EF9064600BFDC
:1047600057F82C0C800005D5FDF726F9801B022890
:10477000F6D964E057F8040CEE6895E80E0020F0D6
:104780007C70012C40EA0150A2F101016FF35F211E
:104790004FF47E4202EB432247F8040C92B24FF0F2
:1047A000FE4302EB01004FF4FE012A6901EB0641D2
:1047B00001F4FE0103EB0262084402F0FE410844EA
:1047C00078613868696920F4406040EA0100386027
:1047D0003868A96920F4007040EA01003860386840
:1047E0004FF6F87120F480703860B869EA6920EA01
:1047F00001004FF0807140EAC200B861386808BF1C
:104800004FF4000140F48070002C386008BF4FF472
:10481000800138680843386057F82C0C40F080500D
:1048200047F82C0CFDF7C8F8044600BF57F82C0CCD
:10483000800007D4FDF7C0F8001B0328F6D303203F
:1048400001B0F0BD002001B0F0BD0000000000008C
:104850007047000000000000FDF73ABA00000000B9
:10486000B0B59CB044F6180409A84C21C5F6020462
:10487000FBF710FE02200025CDE90755CDE90555CF
:10488000CDE90355CDE90155FDF742FB40F22C403F
:104890000095C5F60000016821F001010160006883
:1048A00000F001000090206840F440402060206843
:1048B00000F44040009000982068800409D42068EB
:1048C00080045CBF20685FEA804002D420688004D6
:1048D000F2D5012009904FF480300A900220149004
:1048E000CDE9120040240025CDE91540CDE917009F
:1048F0000C20199009A8CDE91A55FEF73DFC28B106
:10490000EFF3108072B600BFFEE700BF3F200190BA
:1049100003200221CDE9020508200694CDE9040414
:104920004FF48060CDE9070401A8FEF7E5F928B14E
:10493000EFF3108072B600BFFEE700BF1CB0B0BD41
:104940004EF6885042F2000CCEF20000C5F2002C68
:10495000016841F470010160DCF8000000F00F0014
:10496000062806D8DCF80000072161F30300CCF824
:10497000000044F200404EF67F52C5F60200CEF62B
:10498000F622016841F00101016000210161036824
:104990001A400260DCF80020120706D5DCF800207F
:1049A000072363F30302CCF8002040F20022816168
:1049B000C161C0F20222016282620022C0F2FF12D3
:1049C000C26240F28022C0F201120263416382633C
:1049D000C16302644164026822F4802202600166BD
:1049E00041F20000C5F600400068B1EB507F05D1F0
:1049F00048F208100121C5F20010016044F20000E5
:104A000043F2D201C5F200200160704700000000AF
:104A1000816A0A070CD4CA0715D18A071ED44A072F
:104A200027D4CA0630D48A0639D44A0642D454E080
:104A30000268D0F838C0536823F4004343EA0C03FB
:104A40005360CA07E9D00268D0F82CC0536823F439
:104A5000003343EA0C0353608A07E0D50268D0F8BC
:104A600030C0536823F4803343EA0C0353604A0791
:104A7000D7D50268D0F834C0536823F4802343EAC2
:104A80000C035360CA06CED50268D0F83CC09368C8
:104A900023F4805343EA0C0393608A06C5D5026869
:104AA000D0F840C0936823F4005343EA0C039360AA
:104AB0004A0612D50268D0F844C0BCF5801F53687E
:104AC00023F4801343EA0C03536006D1536823F4A4
:104AD000C00C836C43EA0C035360090658BF70474F
:104AE0000168C06C4A6822F4002210434860704795
:104AF000B0B582B004460020C4F89000FCF75CFF1B
:104B0000216805460A68120737D54FF400110022C4
:104B10006FF07E40009020462B4600F0E5FA58B337
:104B2000206850E8000F216820F0800041E8000272
:104B3000002A1FBF206850E8000F216820F0800085
:104B40001CBF41E80002002A12D0206850E8000F84
:104B5000216820F0800041E800024AB1206850E856
:104B6000000F216820F0800041E80002002AD7D120
:104B70000320202188226CE02168086840075FD567
:104B80004FF4800100226FF07E40009020462B46BB
:104B900000F0AAFA002853D0206850E8000F2168DE
:104BA00020F4907041E80002F2B1206850E8000F54
:104BB000216820F4907041E80002002A1FBF20689D
:104BC00050E8000F216820F490701CBF41E80002FB
:104BD000002A09D0206850E8000F216820F4907066
:104BE00041E80002002AD7D1206850E8020F21686E
:104BF00020F0010041E80202002A1FBF206850E8AF
:104C0000020F216820F001001CBF41E80202002AC7
:104C100012D0206850E8020F216820F0010041E81E
:104C200002024AB1206850E8020F216820F001001A
:104C300041E80202002AD7D1032020218C2208E07B
:104C40002020C4F88800C4F88C00002170220020C5
:104C5000E166A150002184F8841002B0B0BD0000CC
:104C6000F0B583B00446006846F6F31640F6004EF1
:104C700022696569D4E902130A43E7690168CCF641
:104C8000FF762A4331401143C5F6000E39430160D7
:104C90004168704521F4405144F2544C41EA03010B
:104CA0004160A2694FF2FF431CBF216A0A43816839
:104CB000C1F2FF131940C5F6020C1143816047F29F
:104CC000FF72C16AC4F2000221F00F01656A9042CE
:104CD0004FF0800341EA0501C1621FDD40F6FF711C
:104CE000C4F2010188423BDD704500F0258141F2AC
:104CF0000041C4F20101884205D041F20001C4F232
:104D00000101884244D1DCF80010C1F3C202062A36
:104D10003ED245F2AC41C0F6000137E044F6FF3127
:104D2000C4F2000188420DDC44F20041C4F20001EB
:104D3000884221D044F60001C4F2000188421BD011
:104D400026E000BF44F60041C4F20001884213D0BF
:104D500045F20001C4F2000188420DD018E000BF06
:104D600047F60001C4F20001884205D047F6004131
:104D7000C4F2000188420BD1DCF8001001F00702F8
:104D8000062A05D245F2B241C0F600018B181B7805
:104D9000704540F60010C0F23D0000F05380B7F5BA
:104DA000004F40F07B80402B4FF0010100F28F81DB
:104DB000DFE813F0420038018D018D0140018D01C3
:104DC0008D018D014C018D018D018D018D018D01B4
:104DD0008D018D0114018D018D018D018D018D01DC
:104DE0008D018D018D018D018D018D018D018D0153
:104DF0008D018D0152018D018D018D018D018D017E
:104E00008D018D018D018D018D018D018D018D0132
:104E10008D018D018D018D018D018D018D018D0122
:104E20008D018D018D018D018D018D018D018D0112
:104E30008D018D01300100BFFEF7B2F8002840F06F
:104E40000A8140E19A1E01211E2A00F27F80DFE8DC
:104E500012F01F003E0191003E013E013E0197000D
:104E60003E013E013E013E013E013E013E01830006
:104E70003E013E013E013E013E013E013E013E013A
:104E80003E013E013E013E013E013E013E019F00CA
:104E9000FDF766F8002840F07A8014E1402B4FF0CF
:104EA000010100F21481DFE813F04100C10012019A
:104EB0001201CB00120112011201F30012011201C2
:104EC00012011201120112011201A70012011201B6
:104ED000120112011201120112011201120112013A
:104EE00012011201120112011201F9001201120144
:104EF000120112011201120112011201120112011A
:104F00001201120112011201120112011201120109
:104F100012011201120112011201120112011201F9
:104F200012011201120112011201B900FEF738F844
:104F3000002840F0B280C6E0DCF8041001F007025F
:104F4000062ABFF425AF66A120E700BF402B40F042
:104F5000BE804FF400401BE05CF8540C800649F220
:104F60000000C0F2D03013D55CF8541CC1F3C1016D
:104F7000C8400DE06846FDF707F8019838B9A2E08F
:104F80006846FDF799F80198002800F09C80656A52
:104F900045F2C8416268C0F6000131F81510B0FB57
:104FA000F1F002EB420188424FF00101C0F08F8026
:104FB0001303984200F28B80010E0023000210EBD5
:104FC000520041F10001FBF7EDF94FF60052A0F558
:104FD0004071C0F20F02914273D377E05CF8540C39
:104FE000800649F20000C0F2D03035D55CF8541C80
:104FF000C1F3C101C8402FE05CF8540C800649F2AF
:105000000000C0F2D03049D55CF8541CC1F3C10196
:10501000C84043E04FF400401EE000BF4FF40040A2
:105020003CE000BFFDF7ECFFA8B94CE0FDF7E8FF5E
:1050300098BB48E06846FCF7A7FF019858B942E0E2
:105040006846FCF7A1FF019838BB3CE06846FDF7D5
:1050500033F80198B8B3656A45F2C841C0F600015B
:1050600031F81510B0FBF1F061684A0802EB40001E
:105070004FF6EF72B0FBF1F0A0F11001914225D88C
:105080004FF6F0710140C0F34200084419E000BF40
:105090006846FDF711F80198A8B1656A45F2C84164
:1050A0006268C0F6000131F81510B0FBF1F000EBBA
:1050B0005200B0FBF2F0A0F110014FF6EF729142F6
:1050C00004D82168C860002101E000BF01214FF031
:1050D0000110A0660020C4E91D00084603B0F0BD21
:1050E00002040810204000002DE9F04180460068CD
:1050F0000D46C7693940491BB1FA81F1490991420E
:1051000025D1069C34B31646611C29D1C1692940BA
:10511000491BB1FA81F14909B14218D1C16929404D
:10512000491BB1FA81F14909B14201BFC169294066
:10513000491BB1FA81F104BF4909B14207D1C169E4
:105140002940491BB1FA81F14909B142DED0002062
:10515000BDE8F081FCF730FC0320BDE8F08100BF22
:105160001F4607E0C0692840401BB0FA80F04009A4
:10517000B042ECD1FCF720FCC01BA04200F2B6808C
:10518000D8F8000001684907ECD5402D18BF802DE4
:10519000E8D0C169090700F1AD80C1690905E1D511
:1051A0004FF400610162D8F8000050E8000FD8F811
:1051B000001020F4907041E8000222B3D8F80000FB
:1051C00050E8000FD8F8001020F4907041E8000279
:1051D000002A1FBFD8F8000050E8000FD8F80010D0
:1051E00020F490701CBF41E80002002A0BD0D8F8D0
:1051F000000050E8000FD8F8001020F4907041E84B
:105200000002002ACFD14FF6FE70CEF6FF70D8F81C
:10521000001051E8021FD8F80020014042E80213B4
:105220000BB3D8F8001051E8021FD8F80020014055
:1052300042E80213002B1FBFD8F8001051E8021FEC
:10524000D8F8002001401CBF42E80213002B0AD00E
:10525000D8F8001051E8021FD8F80020014042E8B9
:105260000213002BD3D1D8F86C0001282FD1D8F825
:10527000000050E8000FD8F8001020F0100041E8BE
:10528000000222B3D8F8000050E8000FD8F8001050
:1052900020F0100041E80002002A1FBFD8F80000EB
:1052A00050E8000FD8F8001020F010001CBF41E8B3
:1052B0000002002A0BD0D8F8000050E8000FD8F800
:1052C000001020F0100041E80002002ACFD1202079
:1052D000C8F88C000021C8F86C10C8F87410C8F821
:1052E0009000032088F88410BDE8F0810320BDE819
:1052F000F08100BF08210162D8F8000050E8000FDB
:10530000D8F8001020F4907041E8000222B3D8F8D9
:10531000000050E8000FD8F8001020F4907041E829
:105320000002002A1FBFD8F8000050E8000FD8F88C
:10533000001020F490701CBF41E80002002A0BD03E
:10534000D8F8000050E8000FD8F8001020F4907052
:1053500041E80002002ACFD14FF6FE70CEF6FF7072
:10536000D8F8001051E8021FD8F80020014042E8A8
:1053700002130BB3D8F8001051E8021FD8F8002030
:10538000014042E80213002B1FBFD8F8001051E87B
:10539000021FD8F8002001401CBF42E80213002B76
:1053A0000AD0D8F8001051E8021FD8F800200140B8
:1053B00042E80213002BD3D1D8F86C0001282FD17A
:1053C000D8F8000050E8000FD8F8001020F01000C6
:1053D00041E8000222B3D8F8000050E8000FD8F8E6
:1053E000001020F0100041E80002002A1FBFD8F88A
:1053F000000050E8000FD8F8001020F010001CBF8B
:1054000041E80002002A0BD0D8F8000050E8000F55
:10541000D8F8001020F0100041E80002002ACFD197
:105420002020C8F88C000020C8F86C00C8F8740070
:105430000821C8F8901088F884000120BDE8F081A8
:10544000FEE700000000000084B001200090FCF79F
:10545000DBFC0020019048F21F70029040F2011026
:1054600003906846FCF7A0FC0420FCF7DDFCFCF789
:105470003FFCFFF7F5F9FEF79BFFFEF775FFFFF71F
:1054800033F8FEF7C1FFFEF7F7FFFFF76DF800BF37
:10549000FEE7F1EE100A4FF6FF71C0F2C03120EACC
:1054A000010040F04070E1EE100A7047010408105E
:1054B0002040000408102040000000000102030406
:1054C00001020304060708090100020004000600A7
:1054D00008000A000C0010002000400080000001BD
:1054E0000101010307010000080402040801010191
:1054F000105500080000002410000000FC02000805
:105500002055000810000024280900001C03000892
:1055100001000000100000000090D0030090D003B4
:040000050800029954
:00000001FF
